{
  "contractName": "MinecraftSwords",
  "abi": [
    {
      "inputs": [],
      "stateMutability": "nonpayable",
      "type": "constructor"
    },
    {
      "anonymous": false,
      "inputs": [
        {
          "indexed": true,
          "internalType": "address",
          "name": "account",
          "type": "address"
        },
        {
          "indexed": true,
          "internalType": "address",
          "name": "operator",
          "type": "address"
        },
        {
          "indexed": false,
          "internalType": "bool",
          "name": "approved",
          "type": "bool"
        }
      ],
      "name": "ApprovalForAll",
      "type": "event"
    },
    {
      "anonymous": false,
      "inputs": [
        {
          "indexed": true,
          "internalType": "address",
          "name": "operator",
          "type": "address"
        },
        {
          "indexed": true,
          "internalType": "address",
          "name": "from",
          "type": "address"
        },
        {
          "indexed": true,
          "internalType": "address",
          "name": "to",
          "type": "address"
        },
        {
          "indexed": false,
          "internalType": "uint256[]",
          "name": "ids",
          "type": "uint256[]"
        },
        {
          "indexed": false,
          "internalType": "uint256[]",
          "name": "values",
          "type": "uint256[]"
        }
      ],
      "name": "TransferBatch",
      "type": "event"
    },
    {
      "anonymous": false,
      "inputs": [
        {
          "indexed": true,
          "internalType": "address",
          "name": "operator",
          "type": "address"
        },
        {
          "indexed": true,
          "internalType": "address",
          "name": "from",
          "type": "address"
        },
        {
          "indexed": true,
          "internalType": "address",
          "name": "to",
          "type": "address"
        },
        {
          "indexed": false,
          "internalType": "uint256",
          "name": "id",
          "type": "uint256"
        },
        {
          "indexed": false,
          "internalType": "uint256",
          "name": "value",
          "type": "uint256"
        }
      ],
      "name": "TransferSingle",
      "type": "event"
    },
    {
      "anonymous": false,
      "inputs": [
        {
          "indexed": false,
          "internalType": "string",
          "name": "value",
          "type": "string"
        },
        {
          "indexed": true,
          "internalType": "uint256",
          "name": "id",
          "type": "uint256"
        }
      ],
      "name": "URI",
      "type": "event"
    },
    {
      "inputs": [],
      "name": "DIAMOND",
      "outputs": [
        {
          "internalType": "uint256",
          "name": "",
          "type": "uint256"
        }
      ],
      "stateMutability": "view",
      "type": "function",
      "constant": true
    },
    {
      "inputs": [],
      "name": "GOLD",
      "outputs": [
        {
          "internalType": "uint256",
          "name": "",
          "type": "uint256"
        }
      ],
      "stateMutability": "view",
      "type": "function",
      "constant": true
    },
    {
      "inputs": [],
      "name": "IRON",
      "outputs": [
        {
          "internalType": "uint256",
          "name": "",
          "type": "uint256"
        }
      ],
      "stateMutability": "view",
      "type": "function",
      "constant": true
    },
    {
      "inputs": [],
      "name": "STONE",
      "outputs": [
        {
          "internalType": "uint256",
          "name": "",
          "type": "uint256"
        }
      ],
      "stateMutability": "view",
      "type": "function",
      "constant": true
    },
    {
      "inputs": [],
      "name": "WOOD",
      "outputs": [
        {
          "internalType": "uint256",
          "name": "",
          "type": "uint256"
        }
      ],
      "stateMutability": "view",
      "type": "function",
      "constant": true
    },
    {
      "inputs": [
        {
          "internalType": "address",
          "name": "account",
          "type": "address"
        },
        {
          "internalType": "uint256",
          "name": "id",
          "type": "uint256"
        }
      ],
      "name": "balanceOf",
      "outputs": [
        {
          "internalType": "uint256",
          "name": "",
          "type": "uint256"
        }
      ],
      "stateMutability": "view",
      "type": "function",
      "constant": true
    },
    {
      "inputs": [
        {
          "internalType": "address[]",
          "name": "accounts",
          "type": "address[]"
        },
        {
          "internalType": "uint256[]",
          "name": "ids",
          "type": "uint256[]"
        }
      ],
      "name": "balanceOfBatch",
      "outputs": [
        {
          "internalType": "uint256[]",
          "name": "",
          "type": "uint256[]"
        }
      ],
      "stateMutability": "view",
      "type": "function",
      "constant": true
    },
    {
      "inputs": [],
      "name": "diamondTotalLimit",
      "outputs": [
        {
          "internalType": "uint256",
          "name": "",
          "type": "uint256"
        }
      ],
      "stateMutability": "view",
      "type": "function",
      "constant": true
    },
    {
      "inputs": [],
      "name": "diamondTotalSupply",
      "outputs": [
        {
          "internalType": "uint256",
          "name": "",
          "type": "uint256"
        }
      ],
      "stateMutability": "view",
      "type": "function",
      "constant": true
    },
    {
      "inputs": [],
      "name": "goldTotalLimit",
      "outputs": [
        {
          "internalType": "uint256",
          "name": "",
          "type": "uint256"
        }
      ],
      "stateMutability": "view",
      "type": "function",
      "constant": true
    },
    {
      "inputs": [],
      "name": "goldTotalSupply",
      "outputs": [
        {
          "internalType": "uint256",
          "name": "",
          "type": "uint256"
        }
      ],
      "stateMutability": "view",
      "type": "function",
      "constant": true
    },
    {
      "inputs": [],
      "name": "ironTotalLimit",
      "outputs": [
        {
          "internalType": "uint256",
          "name": "",
          "type": "uint256"
        }
      ],
      "stateMutability": "view",
      "type": "function",
      "constant": true
    },
    {
      "inputs": [],
      "name": "ironTotalSupply",
      "outputs": [
        {
          "internalType": "uint256",
          "name": "",
          "type": "uint256"
        }
      ],
      "stateMutability": "view",
      "type": "function",
      "constant": true
    },
    {
      "inputs": [
        {
          "internalType": "address",
          "name": "account",
          "type": "address"
        },
        {
          "internalType": "address",
          "name": "operator",
          "type": "address"
        }
      ],
      "name": "isApprovedForAll",
      "outputs": [
        {
          "internalType": "bool",
          "name": "",
          "type": "bool"
        }
      ],
      "stateMutability": "view",
      "type": "function",
      "constant": true
    },
    {
      "inputs": [],
      "name": "owner",
      "outputs": [
        {
          "internalType": "address",
          "name": "",
          "type": "address"
        }
      ],
      "stateMutability": "view",
      "type": "function",
      "constant": true
    },
    {
      "inputs": [
        {
          "internalType": "address",
          "name": "from",
          "type": "address"
        },
        {
          "internalType": "address",
          "name": "to",
          "type": "address"
        },
        {
          "internalType": "uint256[]",
          "name": "ids",
          "type": "uint256[]"
        },
        {
          "internalType": "uint256[]",
          "name": "amounts",
          "type": "uint256[]"
        },
        {
          "internalType": "bytes",
          "name": "data",
          "type": "bytes"
        }
      ],
      "name": "safeBatchTransferFrom",
      "outputs": [],
      "stateMutability": "nonpayable",
      "type": "function"
    },
    {
      "inputs": [
        {
          "internalType": "address",
          "name": "from",
          "type": "address"
        },
        {
          "internalType": "address",
          "name": "to",
          "type": "address"
        },
        {
          "internalType": "uint256",
          "name": "id",
          "type": "uint256"
        },
        {
          "internalType": "uint256",
          "name": "amount",
          "type": "uint256"
        },
        {
          "internalType": "bytes",
          "name": "data",
          "type": "bytes"
        }
      ],
      "name": "safeTransferFrom",
      "outputs": [],
      "stateMutability": "nonpayable",
      "type": "function"
    },
    {
      "inputs": [
        {
          "internalType": "address",
          "name": "operator",
          "type": "address"
        },
        {
          "internalType": "bool",
          "name": "approved",
          "type": "bool"
        }
      ],
      "name": "setApprovalForAll",
      "outputs": [],
      "stateMutability": "nonpayable",
      "type": "function"
    },
    {
      "inputs": [],
      "name": "stoneTotalLimit",
      "outputs": [
        {
          "internalType": "uint256",
          "name": "",
          "type": "uint256"
        }
      ],
      "stateMutability": "view",
      "type": "function",
      "constant": true
    },
    {
      "inputs": [],
      "name": "stoneTotalSupply",
      "outputs": [
        {
          "internalType": "uint256",
          "name": "",
          "type": "uint256"
        }
      ],
      "stateMutability": "view",
      "type": "function",
      "constant": true
    },
    {
      "inputs": [
        {
          "internalType": "bytes4",
          "name": "interfaceId",
          "type": "bytes4"
        }
      ],
      "name": "supportsInterface",
      "outputs": [
        {
          "internalType": "bool",
          "name": "",
          "type": "bool"
        }
      ],
      "stateMutability": "view",
      "type": "function",
      "constant": true
    },
    {
      "inputs": [
        {
          "internalType": "uint256",
          "name": "",
          "type": "uint256"
        }
      ],
      "name": "uri",
      "outputs": [
        {
          "internalType": "string",
          "name": "",
          "type": "string"
        }
      ],
      "stateMutability": "view",
      "type": "function",
      "constant": true
    },
    {
      "inputs": [],
      "name": "woodTotalLimit",
      "outputs": [
        {
          "internalType": "uint256",
          "name": "",
          "type": "uint256"
        }
      ],
      "stateMutability": "view",
      "type": "function",
      "constant": true
    },
    {
      "inputs": [],
      "name": "woodTotalSupply",
      "outputs": [
        {
          "internalType": "uint256",
          "name": "",
          "type": "uint256"
        }
      ],
      "stateMutability": "view",
      "type": "function",
      "constant": true
    },
    {
      "inputs": [
        {
          "internalType": "uint256",
          "name": "_quantidade",
          "type": "uint256"
        }
      ],
      "name": "buyWood",
      "outputs": [],
      "stateMutability": "payable",
      "type": "function",
      "payable": true
    },
    {
      "inputs": [
        {
          "internalType": "uint256",
          "name": "_quantidade",
          "type": "uint256"
        }
      ],
      "name": "buyStone",
      "outputs": [],
      "stateMutability": "payable",
      "type": "function",
      "payable": true
    },
    {
      "inputs": [
        {
          "internalType": "uint256",
          "name": "_quantidade",
          "type": "uint256"
        }
      ],
      "name": "buyIron",
      "outputs": [],
      "stateMutability": "payable",
      "type": "function",
      "payable": true
    },
    {
      "inputs": [
        {
          "internalType": "uint256",
          "name": "_quantidade",
          "type": "uint256"
        }
      ],
      "name": "buyGold",
      "outputs": [],
      "stateMutability": "payable",
      "type": "function",
      "payable": true
    },
    {
      "inputs": [
        {
          "internalType": "uint256",
          "name": "_quantidade",
          "type": "uint256"
        }
      ],
      "name": "buyDiamond",
      "outputs": [],
      "stateMutability": "payable",
      "type": "function",
      "payable": true
    }
  ],
  "bytecode": "0x60806040526000600355600060045560006005556000600655600060075562030d40600855614e206009556107d0600a5560c8600b556014600c553480156200004757600080fd5b506040518060600160405280603f8152602001620039c4603f91396200007381620000bb60201b60201c565b5033600d60006101000a81548173ffffffffffffffffffffffffffffffffffffffff021916908373ffffffffffffffffffffffffffffffffffffffff16021790555062000431565b8060029081620000cc91906200034a565b5050565b600081519050919050565b7f4e487b7100000000000000000000000000000000000000000000000000000000600052604160045260246000fd5b7f4e487b7100000000000000000000000000000000000000000000000000000000600052602260045260246000fd5b600060028204905060018216806200015257607f821691505b6020821081036200016857620001676200010a565b5b50919050565b60008190508160005260206000209050919050565b60006020601f8301049050919050565b600082821b905092915050565b600060088302620001d27fffffffffffffffffffffffffffffffffffffffffffffffffffffffffffffffff8262000193565b620001de868362000193565b95508019841693508086168417925050509392505050565b6000819050919050565b6000819050919050565b60006200022b620002256200021f84620001f6565b62000200565b620001f6565b9050919050565b6000819050919050565b62000247836200020a565b6200025f620002568262000232565b848454620001a0565b825550505050565b600090565b6200027662000267565b620002838184846200023c565b505050565b5b81811015620002ab576200029f6000826200026c565b60018101905062000289565b5050565b601f821115620002fa57620002c4816200016e565b620002cf8462000183565b81016020851015620002df578190505b620002f7620002ee8562000183565b83018262000288565b50505b505050565b600082821c905092915050565b60006200031f60001984600802620002ff565b1980831691505092915050565b60006200033a83836200030c565b9150826002028217905092915050565b6200035582620000d0565b67ffffffffffffffff811115620003715762000370620000db565b5b6200037d825462000139565b6200038a828285620002af565b600060209050601f831160018114620003c25760008415620003ad578287015190505b620003b985826200032c565b86555062000429565b601f198416620003d2866200016e565b60005b82811015620003fc57848901518255600182019150602085019450602081019050620003d5565b868310156200041c578489015162000418601f8916826200030c565b8355505b6001600288020188555050505b505050505050565b61358380620004416000396000f3fe6080604052600436106101c15760003560e01c80635653e3ac116100f7578063960256b611610095578063c903ed6811610064578063c903ed68146105f2578063c9e3087a1461061d578063e985e9c514610648578063f242432a14610685576101c1565b8063960256b61461055757806399eb1def14610573578063a22cb4651461059e578063c62d9b62146105c7576101c1565b80637212ebd3116100d15780637212ebd3146104ba578063774985a8146104e55780638da5cb5b146105015780638f96c1101461052c576101c1565b80635653e3ac1461043957806367a86f5b1461046457806369f9901e1461048f576101c1565b8063389d963611610164578063463d94421161013e578063463d94421461038a5780634e1273f4146103b5578063519976bb146103f2578063552ac5041461040e576101c1565b8063389d9636146103185780633e4bee381461033457806342616d211461035f576101c1565b80630e89341c116101a05780630e89341c1461025c5780631fd81bcd14610299578063206545c2146102c45780632eb2c2d6146102ef576101c1565b8062fdd58e146101c657806301ffc9a7146102035780630305810c14610240575b600080fd5b3480156101d257600080fd5b506101ed60048036038101906101e8919061222f565b6106ae565b6040516101fa919061227e565b60405180910390f35b34801561020f57600080fd5b5061022a600480360381019061022591906122f1565b610776565b6040516102379190612339565b60405180910390f35b61025a60048036038101906102559190612354565b610858565b005b34801561026857600080fd5b50610283600480360381019061027e9190612354565b6109d5565b6040516102909190612411565b60405180910390f35b3480156102a557600080fd5b506102ae610a69565b6040516102bb919061227e565b60405180910390f35b3480156102d057600080fd5b506102d9610a6e565b6040516102e6919061227e565b60405180910390f35b3480156102fb57600080fd5b5061031660048036038101906103119190612630565b610a73565b005b610332600480360381019061032d9190612354565b610b14565b005b34801561034057600080fd5b50610349610c93565b604051610356919061227e565b60405180910390f35b34801561036b57600080fd5b50610374610c98565b604051610381919061227e565b60405180910390f35b34801561039657600080fd5b5061039f610c9e565b6040516103ac919061227e565b60405180910390f35b3480156103c157600080fd5b506103dc60048036038101906103d791906127c2565b610ca4565b6040516103e991906128f8565b60405180910390f35b61040c60048036038101906104079190612354565b610dbd565b005b34801561041a57600080fd5b50610423610f3b565b604051610430919061227e565b60405180910390f35b34801561044557600080fd5b5061044e610f41565b60405161045b919061227e565b60405180910390f35b34801561047057600080fd5b50610479610f46565b604051610486919061227e565b60405180910390f35b34801561049b57600080fd5b506104a4610f4c565b6040516104b1919061227e565b60405180910390f35b3480156104c657600080fd5b506104cf610f51565b6040516104dc919061227e565b60405180910390f35b6104ff60048036038101906104fa9190612354565b610f57565b005b34801561050d57600080fd5b506105166110d5565b6040516105239190612929565b60405180910390f35b34801561053857600080fd5b506105416110fb565b60405161054e919061227e565b60405180910390f35b610571600480360381019061056c9190612354565b611101565b005b34801561057f57600080fd5b5061058861127f565b604051610595919061227e565b60405180910390f35b3480156105aa57600080fd5b506105c560048036038101906105c09190612970565b611285565b005b3480156105d357600080fd5b506105dc61129b565b6040516105e9919061227e565b60405180910390f35b3480156105fe57600080fd5b506106076112a1565b604051610614919061227e565b60405180910390f35b34801561062957600080fd5b506106326112a7565b60405161063f919061227e565b60405180910390f35b34801561065457600080fd5b5061066f600480360381019061066a91906129b0565b6112ad565b60405161067c9190612339565b60405180910390f35b34801561069157600080fd5b506106ac60048036038101906106a791906129f0565b611341565b005b60008073ffffffffffffffffffffffffffffffffffffffff168373ffffffffffffffffffffffffffffffffffffffff160361071e576040517f08c379a000000000000000000000000000000000000000000000000000000000815260040161071590612af9565b60405180910390fd5b60008083815260200190815260200160002060008473ffffffffffffffffffffffffffffffffffffffff1673ffffffffffffffffffffffffffffffffffffffff16815260200190815260200160002054905092915050565b60007fd9b67a26000000000000000000000000000000000000000000000000000000007bffffffffffffffffffffffffffffffffffffffffffffffffffffffff1916827bffffffffffffffffffffffffffffffffffffffffffffffffffffffff1916148061084157507f0e89341c000000000000000000000000000000000000000000000000000000007bffffffffffffffffffffffffffffffffffffffffffffffffffffffff1916827bffffffffffffffffffffffffffffffffffffffffffffffffffffffff1916145b806108515750610850826113e2565b5b9050919050565b6000655af3107a40009050600854826003546108749190612b48565b11156108b5576040517f08c379a00000000000000000000000000000000000000000000000000000000081526004016108ac90612bc8565b60405180910390fd5b81816108c19190612be8565b341015610903576040517f08c379a00000000000000000000000000000000000000000000000000000000081526004016108fa90612c76565b60405180910390fd5b6000600d60009054906101000a900473ffffffffffffffffffffffffffffffffffffffff1673ffffffffffffffffffffffffffffffffffffffff163460405161094b90612cc7565b60006040518083038185875af1925050503d8060008114610988576040519150601f19603f3d011682016040523d82523d6000602084013e61098d565b606091505b505090508061099b57600080fd5b6109b7336000856040518060200160405280600081525061144c565b82600360008282546109c99190612b48565b92505081905550505050565b6060600280546109e490612d0b565b80601f0160208091040260200160405190810160405280929190818152602001828054610a1090612d0b565b8015610a5d5780601f10610a3257610100808354040283529160200191610a5d565b820191906000526020600020905b815481529060010190602001808311610a4057829003601f168201915b50505050509050919050565b600281565b600481565b610a7b6115fc565b73ffffffffffffffffffffffffffffffffffffffff168573ffffffffffffffffffffffffffffffffffffffff161480610ac15750610ac085610abb6115fc565b6112ad565b5b610b00576040517f08c379a0000000000000000000000000000000000000000000000000000000008152600401610af790612dae565b60405180910390fd5b610b0d8585858585611604565b5050505050565b60006706f05b59d3b200009050600c5482600754610b329190612b48565b1115610b73576040517f08c379a0000000000000000000000000000000000000000000000000000000008152600401610b6a90612bc8565b60405180910390fd5b8181610b7f9190612be8565b341015610bc1576040517f08c379a0000000000000000000000000000000000000000000000000000000008152600401610bb890612c76565b60405180910390fd5b6000600d60009054906101000a900473ffffffffffffffffffffffffffffffffffffffff1673ffffffffffffffffffffffffffffffffffffffff1634604051610c0990612cc7565b60006040518083038185875af1925050503d8060008114610c46576040519150601f19603f3d011682016040523d82523d6000602084013e610c4b565b606091505b5050905080610c5957600080fd5b610c75336004856040518060200160405280600081525061144c565b8260076000828254610c879190612b48565b92505081905550505050565b600381565b60065481565b60095481565b60608151835114610cea576040517f08c379a0000000000000000000000000000000000000000000000000000000008152600401610ce190612e40565b60405180910390fd5b6000835167ffffffffffffffff811115610d0757610d06612438565b5b604051908082528060200260200182016040528015610d355781602001602082028036833780820191505090505b50905060005b8451811015610db257610d82858281518110610d5a57610d59612e60565b5b6020026020010151858381518110610d7557610d74612e60565b5b60200260200101516106ae565b828281518110610d9557610d94612e60565b5b60200260200101818152505080610dab90612e8f565b9050610d3b565b508091505092915050565b60006611c37937e080009050600a5482600554610dda9190612b48565b1115610e1b576040517f08c379a0000000000000000000000000000000000000000000000000000000008152600401610e1290612bc8565b60405180910390fd5b8181610e279190612be8565b341015610e69576040517f08c379a0000000000000000000000000000000000000000000000000000000008152600401610e6090612c76565b60405180910390fd5b6000600d60009054906101000a900473ffffffffffffffffffffffffffffffffffffffff1673ffffffffffffffffffffffffffffffffffffffff1634604051610eb190612cc7565b60006040518083038185875af1925050503d8060008114610eee576040519150601f19603f3d011682016040523d82523d6000602084013e610ef3565b606091505b5050905080610f0157600080fd5b610f1d336002856040518060200160405280600081525061144c565b8260056000828254610f2f9190612b48565b92505081905550505050565b60045481565b600081565b60035481565b600181565b600b5481565b600066038d7ea4c68000905060095482600454610f749190612b48565b1115610fb5576040517f08c379a0000000000000000000000000000000000000000000000000000000008152600401610fac90612bc8565b60405180910390fd5b8181610fc19190612be8565b341015611003576040517f08c379a0000000000000000000000000000000000000000000000000000000008152600401610ffa90612c76565b60405180910390fd5b6000600d60009054906101000a900473ffffffffffffffffffffffffffffffffffffffff1673ffffffffffffffffffffffffffffffffffffffff163460405161104b90612cc7565b60006040518083038185875af1925050503d8060008114611088576040519150601f19603f3d011682016040523d82523d6000602084013e61108d565b606091505b505090508061109b57600080fd5b6110b7336001856040518060200160405280600081525061144c565b82600460008282546110c99190612b48565b92505081905550505050565b600d60009054906101000a900473ffffffffffffffffffffffffffffffffffffffff1681565b600c5481565b6000662386f26fc100009050600b548260065461111e9190612b48565b111561115f576040517f08c379a000000000000000000000000000000000000000000000000000000000815260040161115690612bc8565b60405180910390fd5b818161116b9190612be8565b3410156111ad576040517f08c379a00000000000000000000000000000000000000000000000000000000081526004016111a490612c76565b60405180910390fd5b6000600d60009054906101000a900473ffffffffffffffffffffffffffffffffffffffff1673ffffffffffffffffffffffffffffffffffffffff16346040516111f590612cc7565b60006040518083038185875af1925050503d8060008114611232576040519150601f19603f3d011682016040523d82523d6000602084013e611237565b606091505b505090508061124557600080fd5b611261336003856040518060200160405280600081525061144c565b82600660008282546112739190612b48565b92505081905550505050565b600a5481565b6112976112906115fc565b8383611925565b5050565b60075481565b60085481565b60055481565b6000600160008473ffffffffffffffffffffffffffffffffffffffff1673ffffffffffffffffffffffffffffffffffffffff16815260200190815260200160002060008373ffffffffffffffffffffffffffffffffffffffff1673ffffffffffffffffffffffffffffffffffffffff16815260200190815260200160002060009054906101000a900460ff16905092915050565b6113496115fc565b73ffffffffffffffffffffffffffffffffffffffff168573ffffffffffffffffffffffffffffffffffffffff16148061138f575061138e856113896115fc565b6112ad565b5b6113ce576040517f08c379a00000000000000000000000000000000000000000000000000000000081526004016113c590612dae565b60405180910390fd5b6113db8585858585611a91565b5050505050565b60007f01ffc9a7000000000000000000000000000000000000000000000000000000007bffffffffffffffffffffffffffffffffffffffffffffffffffffffff1916827bffffffffffffffffffffffffffffffffffffffffffffffffffffffff1916149050919050565b600073ffffffffffffffffffffffffffffffffffffffff168473ffffffffffffffffffffffffffffffffffffffff16036114bb576040517f08c379a00000000000000000000000000000000000000000000000000000000081526004016114b290612f49565b60405180910390fd5b60006114c56115fc565b905060006114d285611d2c565b905060006114df85611d2c565b90506114f083600089858589611da6565b8460008088815260200190815260200160002060008973ffffffffffffffffffffffffffffffffffffffff1673ffffffffffffffffffffffffffffffffffffffff168152602001908152602001600020600082825461154f9190612b48565b925050819055508673ffffffffffffffffffffffffffffffffffffffff16600073ffffffffffffffffffffffffffffffffffffffff168473ffffffffffffffffffffffffffffffffffffffff167fc3d58168c5ae7397731d063d5bbf3d657854427343f4c083240f7aacaa2d0f6289896040516115cd929190612f69565b60405180910390a46115e483600089858589611dae565b6115f383600089898989611db6565b50505050505050565b600033905090565b8151835114611648576040517f08c379a000000000000000000000000000000000000000000000000000000000815260040161163f90613004565b60405180910390fd5b600073ffffffffffffffffffffffffffffffffffffffff168473ffffffffffffffffffffffffffffffffffffffff16036116b7576040517f08c379a00000000000000000000000000000000000000000000000000000000081526004016116ae90613096565b60405180910390fd5b60006116c16115fc565b90506116d1818787878787611da6565b60005b84518110156118825760008582815181106116f2576116f1612e60565b5b60200260200101519050600085838151811061171157611710612e60565b5b60200260200101519050600080600084815260200190815260200160002060008b73ffffffffffffffffffffffffffffffffffffffff1673ffffffffffffffffffffffffffffffffffffffff168152602001908152602001600020549050818110156117b2576040517f08c379a00000000000000000000000000000000000000000000000000000000081526004016117a990613128565b60405180910390fd5b81810360008085815260200190815260200160002060008c73ffffffffffffffffffffffffffffffffffffffff1673ffffffffffffffffffffffffffffffffffffffff168152602001908152602001600020819055508160008085815260200190815260200160002060008b73ffffffffffffffffffffffffffffffffffffffff1673ffffffffffffffffffffffffffffffffffffffff16815260200190815260200160002060008282546118679190612b48565b925050819055505050508061187b90612e8f565b90506116d4565b508473ffffffffffffffffffffffffffffffffffffffff168673ffffffffffffffffffffffffffffffffffffffff168273ffffffffffffffffffffffffffffffffffffffff167f4a39dc06d4c0dbc64b70af90fd698a233a518aa5d07e595d983b8c0526c8f7fb87876040516118f9929190613148565b60405180910390a461190f818787878787611dae565b61191d818787878787611f8d565b505050505050565b8173ffffffffffffffffffffffffffffffffffffffff168373ffffffffffffffffffffffffffffffffffffffff1603611993576040517f08c379a000000000000000000000000000000000000000000000000000000000815260040161198a906131f1565b60405180910390fd5b80600160008573ffffffffffffffffffffffffffffffffffffffff1673ffffffffffffffffffffffffffffffffffffffff16815260200190815260200160002060008473ffffffffffffffffffffffffffffffffffffffff1673ffffffffffffffffffffffffffffffffffffffff16815260200190815260200160002060006101000a81548160ff0219169083151502179055508173ffffffffffffffffffffffffffffffffffffffff168373ffffffffffffffffffffffffffffffffffffffff167f17307eab39ab6107e8899845ad3d59bd9653f200f220920489ca2b5937696c3183604051611a849190612339565b60405180910390a3505050565b600073ffffffffffffffffffffffffffffffffffffffff168473ffffffffffffffffffffffffffffffffffffffff1603611b00576040517f08c379a0000000000000000000000000000000000000000000000000000000008152600401611af790613096565b60405180910390fd5b6000611b0a6115fc565b90506000611b1785611d2c565b90506000611b2485611d2c565b9050611b34838989858589611da6565b600080600088815260200190815260200160002060008a73ffffffffffffffffffffffffffffffffffffffff1673ffffffffffffffffffffffffffffffffffffffff16815260200190815260200160002054905085811015611bcb576040517f08c379a0000000000000000000000000000000000000000000000000000000008152600401611bc290613128565b60405180910390fd5b85810360008089815260200190815260200160002060008b73ffffffffffffffffffffffffffffffffffffffff1673ffffffffffffffffffffffffffffffffffffffff168152602001908152602001600020819055508560008089815260200190815260200160002060008a73ffffffffffffffffffffffffffffffffffffffff1673ffffffffffffffffffffffffffffffffffffffff1681526020019081526020016000206000828254611c809190612b48565b925050819055508773ffffffffffffffffffffffffffffffffffffffff168973ffffffffffffffffffffffffffffffffffffffff168573ffffffffffffffffffffffffffffffffffffffff167fc3d58168c5ae7397731d063d5bbf3d657854427343f4c083240f7aacaa2d0f628a8a604051611cfd929190612f69565b60405180910390a4611d13848a8a86868a611dae565b611d21848a8a8a8a8a611db6565b505050505050505050565b60606000600167ffffffffffffffff811115611d4b57611d4a612438565b5b604051908082528060200260200182016040528015611d795781602001602082028036833780820191505090505b5090508281600081518110611d9157611d90612e60565b5b60200260200101818152505080915050919050565b505050505050565b505050505050565b611dd58473ffffffffffffffffffffffffffffffffffffffff16612164565b15611f85578373ffffffffffffffffffffffffffffffffffffffff1663f23a6e6187878686866040518663ffffffff1660e01b8152600401611e1b959493929190613266565b6020604051808303816000875af1925050508015611e5757506040513d601f19601f82011682018060405250810190611e5491906132d5565b60015b611efc57611e6361330f565b806308c379a003611ebf5750611e77613331565b80611e825750611ec1565b806040517f08c379a0000000000000000000000000000000000000000000000000000000008152600401611eb69190612411565b60405180910390fd5b505b6040517f08c379a0000000000000000000000000000000000000000000000000000000008152600401611ef390613433565b60405180910390fd5b63f23a6e6160e01b7bffffffffffffffffffffffffffffffffffffffffffffffffffffffff1916817bffffffffffffffffffffffffffffffffffffffffffffffffffffffff191614611f83576040517f08c379a0000000000000000000000000000000000000000000000000000000008152600401611f7a906134c5565b60405180910390fd5b505b505050505050565b611fac8473ffffffffffffffffffffffffffffffffffffffff16612164565b1561215c578373ffffffffffffffffffffffffffffffffffffffff1663bc197c8187878686866040518663ffffffff1660e01b8152600401611ff29594939291906134e5565b6020604051808303816000875af192505050801561202e57506040513d601f19601f8201168201806040525081019061202b91906132d5565b60015b6120d35761203a61330f565b806308c379a003612096575061204e613331565b806120595750612098565b806040517f08c379a000000000000000000000000000000000000000000000000000000000815260040161208d9190612411565b60405180910390fd5b505b6040517f08c379a00000000000000000000000000000000000000000000000000000000081526004016120ca90613433565b60405180910390fd5b63bc197c8160e01b7bffffffffffffffffffffffffffffffffffffffffffffffffffffffff1916817bffffffffffffffffffffffffffffffffffffffffffffffffffffffff19161461215a576040517f08c379a0000000000000000000000000000000000000000000000000000000008152600401612151906134c5565b60405180910390fd5b505b505050505050565b6000808273ffffffffffffffffffffffffffffffffffffffff163b119050919050565b6000604051905090565b600080fd5b600080fd5b600073ffffffffffffffffffffffffffffffffffffffff82169050919050565b60006121c68261219b565b9050919050565b6121d6816121bb565b81146121e157600080fd5b50565b6000813590506121f3816121cd565b92915050565b6000819050919050565b61220c816121f9565b811461221757600080fd5b50565b60008135905061222981612203565b92915050565b6000806040838503121561224657612245612191565b5b6000612254858286016121e4565b92505060206122658582860161221a565b9150509250929050565b612278816121f9565b82525050565b6000602082019050612293600083018461226f565b92915050565b60007fffffffff0000000000000000000000000000000000000000000000000000000082169050919050565b6122ce81612299565b81146122d957600080fd5b50565b6000813590506122eb816122c5565b92915050565b60006020828403121561230757612306612191565b5b6000612315848285016122dc565b91505092915050565b60008115159050919050565b6123338161231e565b82525050565b600060208201905061234e600083018461232a565b92915050565b60006020828403121561236a57612369612191565b5b60006123788482850161221a565b91505092915050565b600081519050919050565b600082825260208201905092915050565b60005b838110156123bb5780820151818401526020810190506123a0565b60008484015250505050565b6000601f19601f8301169050919050565b60006123e382612381565b6123ed818561238c565b93506123fd81856020860161239d565b612406816123c7565b840191505092915050565b6000602082019050818103600083015261242b81846123d8565b905092915050565b600080fd5b7f4e487b7100000000000000000000000000000000000000000000000000000000600052604160045260246000fd5b612470826123c7565b810181811067ffffffffffffffff8211171561248f5761248e612438565b5b80604052505050565b60006124a2612187565b90506124ae8282612467565b919050565b600067ffffffffffffffff8211156124ce576124cd612438565b5b602082029050602081019050919050565b600080fd5b60006124f76124f2846124b3565b612498565b9050808382526020820190506020840283018581111561251a576125196124df565b5b835b81811015612543578061252f888261221a565b84526020840193505060208101905061251c565b5050509392505050565b600082601f83011261256257612561612433565b5b81356125728482602086016124e4565b91505092915050565b600080fd5b600067ffffffffffffffff82111561259b5761259a612438565b5b6125a4826123c7565b9050602081019050919050565b82818337600083830152505050565b60006125d36125ce84612580565b612498565b9050828152602081018484840111156125ef576125ee61257b565b5b6125fa8482856125b1565b509392505050565b600082601f83011261261757612616612433565b5b81356126278482602086016125c0565b91505092915050565b600080600080600060a0868803121561264c5761264b612191565b5b600061265a888289016121e4565b955050602061266b888289016121e4565b945050604086013567ffffffffffffffff81111561268c5761268b612196565b5b6126988882890161254d565b935050606086013567ffffffffffffffff8111156126b9576126b8612196565b5b6126c58882890161254d565b925050608086013567ffffffffffffffff8111156126e6576126e5612196565b5b6126f288828901612602565b9150509295509295909350565b600067ffffffffffffffff82111561271a57612719612438565b5b602082029050602081019050919050565b600061273e612739846126ff565b612498565b90508083825260208201905060208402830185811115612761576127606124df565b5b835b8181101561278a578061277688826121e4565b845260208401935050602081019050612763565b5050509392505050565b600082601f8301126127a9576127a8612433565b5b81356127b984826020860161272b565b91505092915050565b600080604083850312156127d9576127d8612191565b5b600083013567ffffffffffffffff8111156127f7576127f6612196565b5b61280385828601612794565b925050602083013567ffffffffffffffff81111561282457612823612196565b5b6128308582860161254d565b9150509250929050565b600081519050919050565b600082825260208201905092915050565b6000819050602082019050919050565b61286f816121f9565b82525050565b60006128818383612866565b60208301905092915050565b6000602082019050919050565b60006128a58261283a565b6128af8185612845565b93506128ba83612856565b8060005b838110156128eb5781516128d28882612875565b97506128dd8361288d565b9250506001810190506128be565b5085935050505092915050565b60006020820190508181036000830152612912818461289a565b905092915050565b612923816121bb565b82525050565b600060208201905061293e600083018461291a565b92915050565b61294d8161231e565b811461295857600080fd5b50565b60008135905061296a81612944565b92915050565b6000806040838503121561298757612986612191565b5b6000612995858286016121e4565b92505060206129a68582860161295b565b9150509250929050565b600080604083850312156129c7576129c6612191565b5b60006129d5858286016121e4565b92505060206129e6858286016121e4565b9150509250929050565b600080600080600060a08688031215612a0c57612a0b612191565b5b6000612a1a888289016121e4565b9550506020612a2b888289016121e4565b9450506040612a3c8882890161221a565b9350506060612a4d8882890161221a565b925050608086013567ffffffffffffffff811115612a6e57612a6d612196565b5b612a7a88828901612602565b9150509295509295909350565b7f455243313135353a2061646472657373207a65726f206973206e6f742061207660008201527f616c6964206f776e657200000000000000000000000000000000000000000000602082015250565b6000612ae3602a8361238c565b9150612aee82612a87565b604082019050919050565b60006020820190508181036000830152612b1281612ad6565b9050919050565b7f4e487b7100000000000000000000000000000000000000000000000000000000600052601160045260246000fd5b6000612b53826121f9565b9150612b5e836121f9565b9250828201905080821115612b7657612b75612b19565b5b92915050565b7f4c696d69746520646520746f6b656e73206d696e7461646f7321000000000000600082015250565b6000612bb2601a8361238c565b9150612bbd82612b7c565b602082019050919050565b60006020820190508181036000830152612be181612ba5565b9050919050565b6000612bf3826121f9565b9150612bfe836121f9565b9250828202612c0c816121f9565b91508282048414831517612c2357612c22612b19565b5b5092915050565b7f5061677565206f2076616c6f72206e65636573736172696f2100000000000000600082015250565b6000612c6060198361238c565b9150612c6b82612c2a565b602082019050919050565b60006020820190508181036000830152612c8f81612c53565b9050919050565b600081905092915050565b50565b6000612cb1600083612c96565b9150612cbc82612ca1565b600082019050919050565b6000612cd282612ca4565b9150819050919050565b7f4e487b7100000000000000000000000000000000000000000000000000000000600052602260045260246000fd5b60006002820490506001821680612d2357607f821691505b602082108103612d3657612d35612cdc565b5b50919050565b7f455243313135353a2063616c6c6572206973206e6f7420746f6b656e206f776e60008201527f6572206f7220617070726f766564000000000000000000000000000000000000602082015250565b6000612d98602e8361238c565b9150612da382612d3c565b604082019050919050565b60006020820190508181036000830152612dc781612d8b565b9050919050565b7f455243313135353a206163636f756e747320616e6420696473206c656e67746860008201527f206d69736d617463680000000000000000000000000000000000000000000000602082015250565b6000612e2a60298361238c565b9150612e3582612dce565b604082019050919050565b60006020820190508181036000830152612e5981612e1d565b9050919050565b7f4e487b7100000000000000000000000000000000000000000000000000000000600052603260045260246000fd5b6000612e9a826121f9565b91507fffffffffffffffffffffffffffffffffffffffffffffffffffffffffffffffff8203612ecc57612ecb612b19565b5b600182019050919050565b7f455243313135353a206d696e7420746f20746865207a65726f2061646472657360008201527f7300000000000000000000000000000000000000000000000000000000000000602082015250565b6000612f3360218361238c565b9150612f3e82612ed7565b604082019050919050565b60006020820190508181036000830152612f6281612f26565b9050919050565b6000604082019050612f7e600083018561226f565b612f8b602083018461226f565b9392505050565b7f455243313135353a2069647320616e6420616d6f756e7473206c656e6774682060008201527f6d69736d61746368000000000000000000000000000000000000000000000000602082015250565b6000612fee60288361238c565b9150612ff982612f92565b604082019050919050565b6000602082019050818103600083015261301d81612fe1565b9050919050565b7f455243313135353a207472616e7366657220746f20746865207a65726f20616460008201527f6472657373000000000000000000000000000000000000000000000000000000602082015250565b600061308060258361238c565b915061308b82613024565b604082019050919050565b600060208201905081810360008301526130af81613073565b9050919050565b7f455243313135353a20696e73756666696369656e742062616c616e636520666f60008201527f72207472616e7366657200000000000000000000000000000000000000000000602082015250565b6000613112602a8361238c565b915061311d826130b6565b604082019050919050565b6000602082019050818103600083015261314181613105565b9050919050565b60006040820190508181036000830152613162818561289a565b90508181036020830152613176818461289a565b90509392505050565b7f455243313135353a2073657474696e6720617070726f76616c2073746174757360008201527f20666f722073656c660000000000000000000000000000000000000000000000602082015250565b60006131db60298361238c565b91506131e68261317f565b604082019050919050565b6000602082019050818103600083015261320a816131ce565b9050919050565b600081519050919050565b600082825260208201905092915050565b600061323882613211565b613242818561321c565b935061325281856020860161239d565b61325b816123c7565b840191505092915050565b600060a08201905061327b600083018861291a565b613288602083018761291a565b613295604083018661226f565b6132a2606083018561226f565b81810360808301526132b4818461322d565b90509695505050505050565b6000815190506132cf816122c5565b92915050565b6000602082840312156132eb576132ea612191565b5b60006132f9848285016132c0565b91505092915050565b60008160e01c9050919050565b600060033d111561332e5760046000803e61332b600051613302565b90505b90565b600060443d106133be57613343612187565b60043d036004823e80513d602482011167ffffffffffffffff8211171561336b5750506133be565b808201805167ffffffffffffffff81111561338957505050506133be565b80602083010160043d0385018111156133a65750505050506133be565b6133b582602001850186612467565b82955050505050505b90565b7f455243313135353a207472616e7366657220746f206e6f6e2d4552433131353560008201527f526563656976657220696d706c656d656e746572000000000000000000000000602082015250565b600061341d60348361238c565b9150613428826133c1565b604082019050919050565b6000602082019050818103600083015261344c81613410565b9050919050565b7f455243313135353a204552433131353552656365697665722072656a6563746560008201527f6420746f6b656e73000000000000000000000000000000000000000000000000602082015250565b60006134af60288361238c565b91506134ba82613453565b604082019050919050565b600060208201905081810360008301526134de816134a2565b9050919050565b600060a0820190506134fa600083018861291a565b613507602083018761291a565b8181036040830152613519818661289a565b9050818103606083015261352d818561289a565b90508181036080830152613541818461322d565b9050969550505050505056fea264697066735822122013f64c99c9e5cb2d5f8b7bd2ee8ed191381b07180ab3e7da19492537b37054ef64736f6c63430008110033697066733a2f2f516d6242695032756a7662597452537453754b536a517a32684173467a58326d5663327a686d77475a4c57507a472f7b69647d2e6a736f6e",
  "immutableReferences": {},
  "source": "// SPDX-License-Identifier: MIT\npragma solidity ^0.8.2;\nimport \"@openzeppelin/contracts/token/ERC1155/ERC1155.sol\";\ncontract MinecraftSwords is ERC1155 {\n    uint256 public constant WOOD = 0;\n    uint256 public constant STONE = 1;\n    uint256 public constant IRON = 2;\n    uint256 public constant GOLD = 3;\n    uint256 public constant DIAMOND = 4;\n    uint256 public woodTotalSupply = 0;\n    uint256 public stoneTotalSupply = 0;\n    uint256 public ironTotalSupply = 0;\n    uint256 public goldTotalSupply = 0;\n    uint256 public diamondTotalSupply = 0;\n    uint256 public woodTotalLimit = 2 * 10 ** 5;\n    uint256 public stoneTotalLimit = 2 * 10 ** 4;\n    uint256 public ironTotalLimit = 2 * 10 ** 3;\n    uint256 public goldTotalLimit = 2 * 10 ** 2;\n    uint256 public diamondTotalLimit = 2 * 10;\n    address public owner;\n    constructor() ERC1155(\"ipfs://QmbBiP2ujvbYtRStSuKSjQz2hAsFzX2mVc2zhmwGZLWPzG/{id}.json\") {\n        owner = msg.sender;\n    }\n    modifier onlyOwner() {\n    require(msg.sender == owner);\n     _;\n    }\n    function buyWood (uint256 _quantidade) public payable {\n        uint256 preco = 1 * 10 ** 14;\n        require (woodTotalSupply + _quantidade <= woodTotalLimit, \"Limite de tokens mintados!\");\n        require (msg.value >= preco * _quantidade, \"Pague o valor necessario!\");\n        (bool os, ) = payable(owner).call{value: msg.value}(\"\");\n        require(os);\n        _mint(msg.sender, WOOD, _quantidade, \"\");\n        woodTotalSupply += _quantidade;\n    }\n    function buyStone (uint256 _quantidade) public payable {\n        uint256 preco = 1 * 10 ** 15;\n        require (stoneTotalSupply + _quantidade <= stoneTotalLimit, \"Limite de tokens mintados!\");\n        require (msg.value >= preco * _quantidade, \"Pague o valor necessario!\");\n        (bool os, ) = payable(owner).call{value: msg.value}(\"\");\n        require(os);\n        _mint(msg.sender, STONE, _quantidade, \"\");\n        stoneTotalSupply += _quantidade;\n    }\n    function buyIron (uint256 _quantidade) public payable {\n        uint256 preco = 5 * 10 ** 15;\n        require (ironTotalSupply + _quantidade <= ironTotalLimit, \"Limite de tokens mintados!\");\n        require (msg.value >= preco * _quantidade, \"Pague o valor necessario!\");\n        (bool os, ) = payable(owner).call{value: msg.value}(\"\");\n        require(os);\n        _mint(msg.sender, IRON, _quantidade, \"\");\n        ironTotalSupply += _quantidade;\n    }\n    function buyGold (uint256 _quantidade) public payable {\n        uint256 preco = 1 * 10 ** 16;\n        require (goldTotalSupply + _quantidade <= goldTotalLimit, \"Limite de tokens mintados!\");\n        require (msg.value >= preco * _quantidade, \"Pague o valor necessario!\");\n        (bool os, ) = payable(owner).call{value: msg.value}(\"\");\n        require(os);\n        _mint(msg.sender, GOLD, _quantidade, \"\");\n        goldTotalSupply += _quantidade;\n    }\n    function buyDiamond (uint256 _quantidade) public payable {\n        uint256 preco = 5 * 10 ** 17;\n        require (diamondTotalSupply + _quantidade <= diamondTotalLimit, \"Limite de tokens mintados!\");\n        require (msg.value >= preco * _quantidade, \"Pague o valor necessario!\");\n        (bool os, ) = payable(owner).call{value: msg.value}(\"\");\n        require(os);\n        _mint(msg.sender, DIAMOND, _quantidade, \"\");\n        diamondTotalSupply += _quantidade;\n    }\n\n}\n\n\n\n\n\n\n\n",
  "sourcePath": "/home/lucas-ibrahim/rea de Trabalho/2ndMarket/MinecraftSwords/contracts/MinecraftSwords.sol",
  "compiler": {
    "name": "solc",
    "version": "0.8.17+commit.8df45f5f.Emscripten.clang"
  },
  "schemaVersion": "3.4.9",
  "updatedAt": "2022-11-30T14:24:39.042Z",
  "networkType": "ethereum",
  "devdoc": {
    "kind": "dev",
    "methods": {
      "balanceOf(address,uint256)": {
        "details": "See {IERC1155-balanceOf}. Requirements: - `account` cannot be the zero address."
      },
      "balanceOfBatch(address[],uint256[])": {
        "details": "See {IERC1155-balanceOfBatch}. Requirements: - `accounts` and `ids` must have the same length."
      },
      "isApprovedForAll(address,address)": {
        "details": "See {IERC1155-isApprovedForAll}."
      },
      "safeBatchTransferFrom(address,address,uint256[],uint256[],bytes)": {
        "details": "See {IERC1155-safeBatchTransferFrom}."
      },
      "safeTransferFrom(address,address,uint256,uint256,bytes)": {
        "details": "See {IERC1155-safeTransferFrom}."
      },
      "setApprovalForAll(address,bool)": {
        "details": "See {IERC1155-setApprovalForAll}."
      },
      "supportsInterface(bytes4)": {
        "details": "See {IERC165-supportsInterface}."
      },
      "uri(uint256)": {
        "details": "See {IERC1155MetadataURI-uri}. This implementation returns the same URI for *all* token types. It relies on the token type ID substitution mechanism https://eips.ethereum.org/EIPS/eip-1155#metadata[defined in the EIP]. Clients calling this function must replace the `\\{id\\}` substring with the actual token type ID."
      }
    },
    "version": 1
  },
  "userdoc": {
    "kind": "user",
    "methods": {},
    "version": 1
  }
}