{
  "contractName": "MinecraftSwords",
  "abi": [
    {
      "inputs": [],
      "stateMutability": "nonpayable",
      "type": "constructor"
    },
    {
      "anonymous": false,
      "inputs": [
        {
          "indexed": true,
          "internalType": "address",
          "name": "account",
          "type": "address"
        },
        {
          "indexed": true,
          "internalType": "address",
          "name": "operator",
          "type": "address"
        },
        {
          "indexed": false,
          "internalType": "bool",
          "name": "approved",
          "type": "bool"
        }
      ],
      "name": "ApprovalForAll",
      "type": "event"
    },
    {
      "anonymous": false,
      "inputs": [
        {
          "indexed": true,
          "internalType": "address",
          "name": "operator",
          "type": "address"
        },
        {
          "indexed": true,
          "internalType": "address",
          "name": "from",
          "type": "address"
        },
        {
          "indexed": true,
          "internalType": "address",
          "name": "to",
          "type": "address"
        },
        {
          "indexed": false,
          "internalType": "uint256[]",
          "name": "ids",
          "type": "uint256[]"
        },
        {
          "indexed": false,
          "internalType": "uint256[]",
          "name": "values",
          "type": "uint256[]"
        }
      ],
      "name": "TransferBatch",
      "type": "event"
    },
    {
      "anonymous": false,
      "inputs": [
        {
          "indexed": true,
          "internalType": "address",
          "name": "operator",
          "type": "address"
        },
        {
          "indexed": true,
          "internalType": "address",
          "name": "from",
          "type": "address"
        },
        {
          "indexed": true,
          "internalType": "address",
          "name": "to",
          "type": "address"
        },
        {
          "indexed": false,
          "internalType": "uint256",
          "name": "id",
          "type": "uint256"
        },
        {
          "indexed": false,
          "internalType": "uint256",
          "name": "value",
          "type": "uint256"
        }
      ],
      "name": "TransferSingle",
      "type": "event"
    },
    {
      "anonymous": false,
      "inputs": [
        {
          "indexed": false,
          "internalType": "string",
          "name": "value",
          "type": "string"
        },
        {
          "indexed": true,
          "internalType": "uint256",
          "name": "id",
          "type": "uint256"
        }
      ],
      "name": "URI",
      "type": "event"
    },
    {
      "inputs": [],
      "name": "DIAMOND",
      "outputs": [
        {
          "internalType": "uint256",
          "name": "",
          "type": "uint256"
        }
      ],
      "stateMutability": "view",
      "type": "function",
      "constant": true
    },
    {
      "inputs": [],
      "name": "GOLD",
      "outputs": [
        {
          "internalType": "uint256",
          "name": "",
          "type": "uint256"
        }
      ],
      "stateMutability": "view",
      "type": "function",
      "constant": true
    },
    {
      "inputs": [],
      "name": "IRON",
      "outputs": [
        {
          "internalType": "uint256",
          "name": "",
          "type": "uint256"
        }
      ],
      "stateMutability": "view",
      "type": "function",
      "constant": true
    },
    {
      "inputs": [],
      "name": "STONE",
      "outputs": [
        {
          "internalType": "uint256",
          "name": "",
          "type": "uint256"
        }
      ],
      "stateMutability": "view",
      "type": "function",
      "constant": true
    },
    {
      "inputs": [],
      "name": "WOOD",
      "outputs": [
        {
          "internalType": "uint256",
          "name": "",
          "type": "uint256"
        }
      ],
      "stateMutability": "view",
      "type": "function",
      "constant": true
    },
    {
      "inputs": [
        {
          "internalType": "address",
          "name": "account",
          "type": "address"
        },
        {
          "internalType": "uint256",
          "name": "id",
          "type": "uint256"
        }
      ],
      "name": "balanceOf",
      "outputs": [
        {
          "internalType": "uint256",
          "name": "",
          "type": "uint256"
        }
      ],
      "stateMutability": "view",
      "type": "function",
      "constant": true
    },
    {
      "inputs": [
        {
          "internalType": "address[]",
          "name": "accounts",
          "type": "address[]"
        },
        {
          "internalType": "uint256[]",
          "name": "ids",
          "type": "uint256[]"
        }
      ],
      "name": "balanceOfBatch",
      "outputs": [
        {
          "internalType": "uint256[]",
          "name": "",
          "type": "uint256[]"
        }
      ],
      "stateMutability": "view",
      "type": "function",
      "constant": true
    },
    {
      "inputs": [],
      "name": "diamondTotalLimit",
      "outputs": [
        {
          "internalType": "uint256",
          "name": "",
          "type": "uint256"
        }
      ],
      "stateMutability": "view",
      "type": "function",
      "constant": true
    },
    {
      "inputs": [],
      "name": "diamondTotalSupply",
      "outputs": [
        {
          "internalType": "uint256",
          "name": "",
          "type": "uint256"
        }
      ],
      "stateMutability": "view",
      "type": "function",
      "constant": true
    },
    {
      "inputs": [],
      "name": "goldTotalLimit",
      "outputs": [
        {
          "internalType": "uint256",
          "name": "",
          "type": "uint256"
        }
      ],
      "stateMutability": "view",
      "type": "function",
      "constant": true
    },
    {
      "inputs": [],
      "name": "goldTotalSupply",
      "outputs": [
        {
          "internalType": "uint256",
          "name": "",
          "type": "uint256"
        }
      ],
      "stateMutability": "view",
      "type": "function",
      "constant": true
    },
    {
      "inputs": [],
      "name": "ironTotalLimit",
      "outputs": [
        {
          "internalType": "uint256",
          "name": "",
          "type": "uint256"
        }
      ],
      "stateMutability": "view",
      "type": "function",
      "constant": true
    },
    {
      "inputs": [],
      "name": "ironTotalSupply",
      "outputs": [
        {
          "internalType": "uint256",
          "name": "",
          "type": "uint256"
        }
      ],
      "stateMutability": "view",
      "type": "function",
      "constant": true
    },
    {
      "inputs": [
        {
          "internalType": "address",
          "name": "account",
          "type": "address"
        },
        {
          "internalType": "address",
          "name": "operator",
          "type": "address"
        }
      ],
      "name": "isApprovedForAll",
      "outputs": [
        {
          "internalType": "bool",
          "name": "",
          "type": "bool"
        }
      ],
      "stateMutability": "view",
      "type": "function",
      "constant": true
    },
    {
      "inputs": [],
      "name": "owner",
      "outputs": [
        {
          "internalType": "address",
          "name": "",
          "type": "address"
        }
      ],
      "stateMutability": "view",
      "type": "function",
      "constant": true
    },
    {
      "inputs": [
        {
          "internalType": "address",
          "name": "from",
          "type": "address"
        },
        {
          "internalType": "address",
          "name": "to",
          "type": "address"
        },
        {
          "internalType": "uint256[]",
          "name": "ids",
          "type": "uint256[]"
        },
        {
          "internalType": "uint256[]",
          "name": "amounts",
          "type": "uint256[]"
        },
        {
          "internalType": "bytes",
          "name": "data",
          "type": "bytes"
        }
      ],
      "name": "safeBatchTransferFrom",
      "outputs": [],
      "stateMutability": "nonpayable",
      "type": "function"
    },
    {
      "inputs": [
        {
          "internalType": "address",
          "name": "from",
          "type": "address"
        },
        {
          "internalType": "address",
          "name": "to",
          "type": "address"
        },
        {
          "internalType": "uint256",
          "name": "id",
          "type": "uint256"
        },
        {
          "internalType": "uint256",
          "name": "amount",
          "type": "uint256"
        },
        {
          "internalType": "bytes",
          "name": "data",
          "type": "bytes"
        }
      ],
      "name": "safeTransferFrom",
      "outputs": [],
      "stateMutability": "nonpayable",
      "type": "function"
    },
    {
      "inputs": [
        {
          "internalType": "address",
          "name": "operator",
          "type": "address"
        },
        {
          "internalType": "bool",
          "name": "approved",
          "type": "bool"
        }
      ],
      "name": "setApprovalForAll",
      "outputs": [],
      "stateMutability": "nonpayable",
      "type": "function"
    },
    {
      "inputs": [],
      "name": "stoneTotalLimit",
      "outputs": [
        {
          "internalType": "uint256",
          "name": "",
          "type": "uint256"
        }
      ],
      "stateMutability": "view",
      "type": "function",
      "constant": true
    },
    {
      "inputs": [],
      "name": "stoneTotalSupply",
      "outputs": [
        {
          "internalType": "uint256",
          "name": "",
          "type": "uint256"
        }
      ],
      "stateMutability": "view",
      "type": "function",
      "constant": true
    },
    {
      "inputs": [
        {
          "internalType": "bytes4",
          "name": "interfaceId",
          "type": "bytes4"
        }
      ],
      "name": "supportsInterface",
      "outputs": [
        {
          "internalType": "bool",
          "name": "",
          "type": "bool"
        }
      ],
      "stateMutability": "view",
      "type": "function",
      "constant": true
    },
    {
      "inputs": [
        {
          "internalType": "uint256",
          "name": "",
          "type": "uint256"
        }
      ],
      "name": "uri",
      "outputs": [
        {
          "internalType": "string",
          "name": "",
          "type": "string"
        }
      ],
      "stateMutability": "view",
      "type": "function",
      "constant": true
    },
    {
      "inputs": [],
      "name": "woodTotalLimit",
      "outputs": [
        {
          "internalType": "uint256",
          "name": "",
          "type": "uint256"
        }
      ],
      "stateMutability": "view",
      "type": "function",
      "constant": true
    },
    {
      "inputs": [],
      "name": "woodTotalSupply",
      "outputs": [
        {
          "internalType": "uint256",
          "name": "",
          "type": "uint256"
        }
      ],
      "stateMutability": "view",
      "type": "function",
      "constant": true
    },
    {
      "inputs": [
        {
          "internalType": "uint256",
          "name": "_quantidade",
          "type": "uint256"
        }
      ],
      "name": "buyWood",
      "outputs": [],
      "stateMutability": "payable",
      "type": "function",
      "payable": true
    },
    {
      "inputs": [
        {
          "internalType": "uint256",
          "name": "_quantidade",
          "type": "uint256"
        }
      ],
      "name": "buyStone",
      "outputs": [],
      "stateMutability": "payable",
      "type": "function",
      "payable": true
    },
    {
      "inputs": [
        {
          "internalType": "uint256",
          "name": "_quantidade",
          "type": "uint256"
        }
      ],
      "name": "buyIron",
      "outputs": [],
      "stateMutability": "payable",
      "type": "function",
      "payable": true
    },
    {
      "inputs": [
        {
          "internalType": "uint256",
          "name": "_quantidade",
          "type": "uint256"
        }
      ],
      "name": "buyGold",
      "outputs": [],
      "stateMutability": "payable",
      "type": "function",
      "payable": true
    },
    {
      "inputs": [
        {
          "internalType": "uint256",
          "name": "_quantidade",
          "type": "uint256"
        }
      ],
      "name": "buyDiamond",
      "outputs": [],
      "stateMutability": "payable",
      "type": "function",
      "payable": true
    },
    {
      "inputs": [],
      "name": "withdraw",
      "outputs": [],
      "stateMutability": "payable",
      "type": "function",
      "payable": true
    }
  ],
  "bytecode": "0x60806040526000600355600060045560006005556000600655600060075562030d40600855614e206009556107d0600a5560c8600b556014600c553480156200004757600080fd5b506040518060600160405280603f8152602001620037d1603f91396200007381620000bb60201b60201c565b5033600d60006101000a81548173ffffffffffffffffffffffffffffffffffffffff021916908373ffffffffffffffffffffffffffffffffffffffff16021790555062000431565b8060029081620000cc91906200034a565b5050565b600081519050919050565b7f4e487b7100000000000000000000000000000000000000000000000000000000600052604160045260246000fd5b7f4e487b7100000000000000000000000000000000000000000000000000000000600052602260045260246000fd5b600060028204905060018216806200015257607f821691505b6020821081036200016857620001676200010a565b5b50919050565b60008190508160005260206000209050919050565b60006020601f8301049050919050565b600082821b905092915050565b600060088302620001d27fffffffffffffffffffffffffffffffffffffffffffffffffffffffffffffffff8262000193565b620001de868362000193565b95508019841693508086168417925050509392505050565b6000819050919050565b6000819050919050565b60006200022b620002256200021f84620001f6565b62000200565b620001f6565b9050919050565b6000819050919050565b62000247836200020a565b6200025f620002568262000232565b848454620001a0565b825550505050565b600090565b6200027662000267565b620002838184846200023c565b505050565b5b81811015620002ab576200029f6000826200026c565b60018101905062000289565b5050565b601f821115620002fa57620002c4816200016e565b620002cf8462000183565b81016020851015620002df578190505b620002f7620002ee8562000183565b83018262000288565b50505b505050565b600082821c905092915050565b60006200031f60001984600802620002ff565b1980831691505092915050565b60006200033a83836200030c565b9150826002028217905092915050565b6200035582620000d0565b67ffffffffffffffff811115620003715762000370620000db565b5b6200037d825462000139565b6200038a828285620002af565b600060209050601f831160018114620003c25760008415620003ad578287015190505b620003b985826200032c565b86555062000429565b601f198416620003d2866200016e565b60005b82811015620003fc57848901518255600182019150602085019450602081019050620003d5565b868310156200041c578489015162000418601f8916826200030c565b8355505b6001600288020188555050505b505050505050565b61339080620004416000396000f3fe6080604052600436106101cc5760003560e01c80635653e3ac116100f7578063960256b611610095578063c903ed6811610064578063c903ed6814610607578063c9e3087a14610632578063e985e9c51461065d578063f242432a1461069a576101cc565b8063960256b61461056c57806399eb1def14610588578063a22cb465146105b3578063c62d9b62146105dc576101cc565b80637212ebd3116100d15780637212ebd3146104cf578063774985a8146104fa5780638da5cb5b146105165780638f96c11014610541576101cc565b80635653e3ac1461044e57806367a86f5b1461047957806369f9901e146104a4576101cc565b8063389d96361161016f578063463d94421161013e578063463d94421461039f5780634e1273f4146103ca578063519976bb14610407578063552ac50414610423576101cc565b8063389d9636146103235780633ccfd60b1461033f5780633e4bee381461034957806342616d2114610374576101cc565b80630e89341c116101ab5780630e89341c146102675780631fd81bcd146102a4578063206545c2146102cf5780632eb2c2d6146102fa576101cc565b8062fdd58e146101d157806301ffc9a71461020e5780630305810c1461024b575b600080fd5b3480156101dd57600080fd5b506101f860048036038101906101f3919061203c565b6106c3565b604051610205919061208b565b60405180910390f35b34801561021a57600080fd5b50610235600480360381019061023091906120fe565b61078b565b6040516102429190612146565b60405180910390f35b61026560048036038101906102609190612161565b61086d565b005b34801561027357600080fd5b5061028e60048036038101906102899190612161565b610951565b60405161029b919061221e565b60405180910390f35b3480156102b057600080fd5b506102b96109e5565b6040516102c6919061208b565b60405180910390f35b3480156102db57600080fd5b506102e46109ea565b6040516102f1919061208b565b60405180910390f35b34801561030657600080fd5b50610321600480360381019061031c919061243d565b6109ef565b005b61033d60048036038101906103389190612161565b610a90565b005b610347610b76565b005b34801561035557600080fd5b5061035e610c6b565b60405161036b919061208b565b60405180910390f35b34801561038057600080fd5b50610389610c70565b604051610396919061208b565b60405180910390f35b3480156103ab57600080fd5b506103b4610c76565b6040516103c1919061208b565b60405180910390f35b3480156103d657600080fd5b506103f160048036038101906103ec91906125cf565b610c7c565b6040516103fe9190612705565b60405180910390f35b610421600480360381019061041c9190612161565b610d95565b005b34801561042f57600080fd5b50610438610e7a565b604051610445919061208b565b60405180910390f35b34801561045a57600080fd5b50610463610e80565b604051610470919061208b565b60405180910390f35b34801561048557600080fd5b5061048e610e85565b60405161049b919061208b565b60405180910390f35b3480156104b057600080fd5b506104b9610e8b565b6040516104c6919061208b565b60405180910390f35b3480156104db57600080fd5b506104e4610e90565b6040516104f1919061208b565b60405180910390f35b610514600480360381019061050f9190612161565b610e96565b005b34801561052257600080fd5b5061052b610f7b565b6040516105389190612736565b60405180910390f35b34801561054d57600080fd5b50610556610fa1565b604051610563919061208b565b60405180910390f35b61058660048036038101906105819190612161565b610fa7565b005b34801561059457600080fd5b5061059d61108c565b6040516105aa919061208b565b60405180910390f35b3480156105bf57600080fd5b506105da60048036038101906105d5919061277d565b611092565b005b3480156105e857600080fd5b506105f16110a8565b6040516105fe919061208b565b60405180910390f35b34801561061357600080fd5b5061061c6110ae565b604051610629919061208b565b60405180910390f35b34801561063e57600080fd5b506106476110b4565b604051610654919061208b565b60405180910390f35b34801561066957600080fd5b50610684600480360381019061067f91906127bd565b6110ba565b6040516106919190612146565b60405180910390f35b3480156106a657600080fd5b506106c160048036038101906106bc91906127fd565b61114e565b005b60008073ffffffffffffffffffffffffffffffffffffffff168373ffffffffffffffffffffffffffffffffffffffff1603610733576040517f08c379a000000000000000000000000000000000000000000000000000000000815260040161072a90612906565b60405180910390fd5b60008083815260200190815260200160002060008473ffffffffffffffffffffffffffffffffffffffff1673ffffffffffffffffffffffffffffffffffffffff16815260200190815260200160002054905092915050565b60007fd9b67a26000000000000000000000000000000000000000000000000000000007bffffffffffffffffffffffffffffffffffffffffffffffffffffffff1916827bffffffffffffffffffffffffffffffffffffffffffffffffffffffff1916148061085657507f0e89341c000000000000000000000000000000000000000000000000000000007bffffffffffffffffffffffffffffffffffffffffffffffffffffffff1916827bffffffffffffffffffffffffffffffffffffffffffffffffffffffff1916145b806108665750610865826111ef565b5b9050919050565b6000655af3107a40009050600854826003546108899190612955565b11156108ca576040517f08c379a00000000000000000000000000000000000000000000000000000000081526004016108c1906129d5565b60405180910390fd5b81816108d691906129f5565b341015610918576040517f08c379a000000000000000000000000000000000000000000000000000000000815260040161090f90612a83565b60405180910390fd5b6109343360008460405180602001604052806000815250611259565b81600360008282546109469190612955565b925050819055505050565b60606002805461096090612ad2565b80601f016020809104026020016040519081016040528092919081815260200182805461098c90612ad2565b80156109d95780601f106109ae576101008083540402835291602001916109d9565b820191906000526020600020905b8154815290600101906020018083116109bc57829003601f168201915b50505050509050919050565b600281565b600481565b6109f7611409565b73ffffffffffffffffffffffffffffffffffffffff168573ffffffffffffffffffffffffffffffffffffffff161480610a3d5750610a3c85610a37611409565b6110ba565b5b610a7c576040517f08c379a0000000000000000000000000000000000000000000000000000000008152600401610a7390612b75565b60405180910390fd5b610a898585858585611411565b5050505050565b60006706f05b59d3b200009050600c5482600754610aae9190612955565b1115610aef576040517f08c379a0000000000000000000000000000000000000000000000000000000008152600401610ae6906129d5565b60405180910390fd5b8181610afb91906129f5565b341015610b3d576040517f08c379a0000000000000000000000000000000000000000000000000000000008152600401610b3490612a83565b60405180910390fd5b610b593360048460405180602001604052806000815250611259565b8160076000828254610b6b9190612955565b925050819055505050565b600d60009054906101000a900473ffffffffffffffffffffffffffffffffffffffff1673ffffffffffffffffffffffffffffffffffffffff163373ffffffffffffffffffffffffffffffffffffffff1614610bd057600080fd5b6000600d60009054906101000a900473ffffffffffffffffffffffffffffffffffffffff1673ffffffffffffffffffffffffffffffffffffffff1647604051610c1890612bc6565b60006040518083038185875af1925050503d8060008114610c55576040519150601f19603f3d011682016040523d82523d6000602084013e610c5a565b606091505b5050905080610c6857600080fd5b50565b600381565b60065481565b60095481565b60608151835114610cc2576040517f08c379a0000000000000000000000000000000000000000000000000000000008152600401610cb990612c4d565b60405180910390fd5b6000835167ffffffffffffffff811115610cdf57610cde612245565b5b604051908082528060200260200182016040528015610d0d5781602001602082028036833780820191505090505b50905060005b8451811015610d8a57610d5a858281518110610d3257610d31612c6d565b5b6020026020010151858381518110610d4d57610d4c612c6d565b5b60200260200101516106c3565b828281518110610d6d57610d6c612c6d565b5b60200260200101818152505080610d8390612c9c565b9050610d13565b508091505092915050565b60006611c37937e080009050600a5482600554610db29190612955565b1115610df3576040517f08c379a0000000000000000000000000000000000000000000000000000000008152600401610dea906129d5565b60405180910390fd5b8181610dff91906129f5565b341015610e41576040517f08c379a0000000000000000000000000000000000000000000000000000000008152600401610e3890612a83565b60405180910390fd5b610e5d3360028460405180602001604052806000815250611259565b8160056000828254610e6f9190612955565b925050819055505050565b60045481565b600081565b60035481565b600181565b600b5481565b600066038d7ea4c68000905060095482600454610eb39190612955565b1115610ef4576040517f08c379a0000000000000000000000000000000000000000000000000000000008152600401610eeb906129d5565b60405180910390fd5b8181610f0091906129f5565b341015610f42576040517f08c379a0000000000000000000000000000000000000000000000000000000008152600401610f3990612a83565b60405180910390fd5b610f5e3360018460405180602001604052806000815250611259565b8160046000828254610f709190612955565b925050819055505050565b600d60009054906101000a900473ffffffffffffffffffffffffffffffffffffffff1681565b600c5481565b6000662386f26fc100009050600b5482600654610fc49190612955565b1115611005576040517f08c379a0000000000000000000000000000000000000000000000000000000008152600401610ffc906129d5565b60405180910390fd5b818161101191906129f5565b341015611053576040517f08c379a000000000000000000000000000000000000000000000000000000000815260040161104a90612a83565b60405180910390fd5b61106f3360038460405180602001604052806000815250611259565b81600660008282546110819190612955565b925050819055505050565b600a5481565b6110a461109d611409565b8383611732565b5050565b60075481565b60085481565b60055481565b6000600160008473ffffffffffffffffffffffffffffffffffffffff1673ffffffffffffffffffffffffffffffffffffffff16815260200190815260200160002060008373ffffffffffffffffffffffffffffffffffffffff1673ffffffffffffffffffffffffffffffffffffffff16815260200190815260200160002060009054906101000a900460ff16905092915050565b611156611409565b73ffffffffffffffffffffffffffffffffffffffff168573ffffffffffffffffffffffffffffffffffffffff16148061119c575061119b85611196611409565b6110ba565b5b6111db576040517f08c379a00000000000000000000000000000000000000000000000000000000081526004016111d290612b75565b60405180910390fd5b6111e8858585858561189e565b5050505050565b60007f01ffc9a7000000000000000000000000000000000000000000000000000000007bffffffffffffffffffffffffffffffffffffffffffffffffffffffff1916827bffffffffffffffffffffffffffffffffffffffffffffffffffffffff1916149050919050565b600073ffffffffffffffffffffffffffffffffffffffff168473ffffffffffffffffffffffffffffffffffffffff16036112c8576040517f08c379a00000000000000000000000000000000000000000000000000000000081526004016112bf90612d56565b60405180910390fd5b60006112d2611409565b905060006112df85611b39565b905060006112ec85611b39565b90506112fd83600089858589611bb3565b8460008088815260200190815260200160002060008973ffffffffffffffffffffffffffffffffffffffff1673ffffffffffffffffffffffffffffffffffffffff168152602001908152602001600020600082825461135c9190612955565b925050819055508673ffffffffffffffffffffffffffffffffffffffff16600073ffffffffffffffffffffffffffffffffffffffff168473ffffffffffffffffffffffffffffffffffffffff167fc3d58168c5ae7397731d063d5bbf3d657854427343f4c083240f7aacaa2d0f6289896040516113da929190612d76565b60405180910390a46113f183600089858589611bbb565b61140083600089898989611bc3565b50505050505050565b600033905090565b8151835114611455576040517f08c379a000000000000000000000000000000000000000000000000000000000815260040161144c90612e11565b60405180910390fd5b600073ffffffffffffffffffffffffffffffffffffffff168473ffffffffffffffffffffffffffffffffffffffff16036114c4576040517f08c379a00000000000000000000000000000000000000000000000000000000081526004016114bb90612ea3565b60405180910390fd5b60006114ce611409565b90506114de818787878787611bb3565b60005b845181101561168f5760008582815181106114ff576114fe612c6d565b5b60200260200101519050600085838151811061151e5761151d612c6d565b5b60200260200101519050600080600084815260200190815260200160002060008b73ffffffffffffffffffffffffffffffffffffffff1673ffffffffffffffffffffffffffffffffffffffff168152602001908152602001600020549050818110156115bf576040517f08c379a00000000000000000000000000000000000000000000000000000000081526004016115b690612f35565b60405180910390fd5b81810360008085815260200190815260200160002060008c73ffffffffffffffffffffffffffffffffffffffff1673ffffffffffffffffffffffffffffffffffffffff168152602001908152602001600020819055508160008085815260200190815260200160002060008b73ffffffffffffffffffffffffffffffffffffffff1673ffffffffffffffffffffffffffffffffffffffff16815260200190815260200160002060008282546116749190612955565b925050819055505050508061168890612c9c565b90506114e1565b508473ffffffffffffffffffffffffffffffffffffffff168673ffffffffffffffffffffffffffffffffffffffff168273ffffffffffffffffffffffffffffffffffffffff167f4a39dc06d4c0dbc64b70af90fd698a233a518aa5d07e595d983b8c0526c8f7fb8787604051611706929190612f55565b60405180910390a461171c818787878787611bbb565b61172a818787878787611d9a565b505050505050565b8173ffffffffffffffffffffffffffffffffffffffff168373ffffffffffffffffffffffffffffffffffffffff16036117a0576040517f08c379a000000000000000000000000000000000000000000000000000000000815260040161179790612ffe565b60405180910390fd5b80600160008573ffffffffffffffffffffffffffffffffffffffff1673ffffffffffffffffffffffffffffffffffffffff16815260200190815260200160002060008473ffffffffffffffffffffffffffffffffffffffff1673ffffffffffffffffffffffffffffffffffffffff16815260200190815260200160002060006101000a81548160ff0219169083151502179055508173ffffffffffffffffffffffffffffffffffffffff168373ffffffffffffffffffffffffffffffffffffffff167f17307eab39ab6107e8899845ad3d59bd9653f200f220920489ca2b5937696c31836040516118919190612146565b60405180910390a3505050565b600073ffffffffffffffffffffffffffffffffffffffff168473ffffffffffffffffffffffffffffffffffffffff160361190d576040517f08c379a000000000000000000000000000000000000000000000000000000000815260040161190490612ea3565b60405180910390fd5b6000611917611409565b9050600061192485611b39565b9050600061193185611b39565b9050611941838989858589611bb3565b600080600088815260200190815260200160002060008a73ffffffffffffffffffffffffffffffffffffffff1673ffffffffffffffffffffffffffffffffffffffff168152602001908152602001600020549050858110156119d8576040517f08c379a00000000000000000000000000000000000000000000000000000000081526004016119cf90612f35565b60405180910390fd5b85810360008089815260200190815260200160002060008b73ffffffffffffffffffffffffffffffffffffffff1673ffffffffffffffffffffffffffffffffffffffff168152602001908152602001600020819055508560008089815260200190815260200160002060008a73ffffffffffffffffffffffffffffffffffffffff1673ffffffffffffffffffffffffffffffffffffffff1681526020019081526020016000206000828254611a8d9190612955565b925050819055508773ffffffffffffffffffffffffffffffffffffffff168973ffffffffffffffffffffffffffffffffffffffff168573ffffffffffffffffffffffffffffffffffffffff167fc3d58168c5ae7397731d063d5bbf3d657854427343f4c083240f7aacaa2d0f628a8a604051611b0a929190612d76565b60405180910390a4611b20848a8a86868a611bbb565b611b2e848a8a8a8a8a611bc3565b505050505050505050565b60606000600167ffffffffffffffff811115611b5857611b57612245565b5b604051908082528060200260200182016040528015611b865781602001602082028036833780820191505090505b5090508281600081518110611b9e57611b9d612c6d565b5b60200260200101818152505080915050919050565b505050505050565b505050505050565b611be28473ffffffffffffffffffffffffffffffffffffffff16611f71565b15611d92578373ffffffffffffffffffffffffffffffffffffffff1663f23a6e6187878686866040518663ffffffff1660e01b8152600401611c28959493929190613073565b6020604051808303816000875af1925050508015611c6457506040513d601f19601f82011682018060405250810190611c6191906130e2565b60015b611d0957611c7061311c565b806308c379a003611ccc5750611c8461313e565b80611c8f5750611cce565b806040517f08c379a0000000000000000000000000000000000000000000000000000000008152600401611cc3919061221e565b60405180910390fd5b505b6040517f08c379a0000000000000000000000000000000000000000000000000000000008152600401611d0090613240565b60405180910390fd5b63f23a6e6160e01b7bffffffffffffffffffffffffffffffffffffffffffffffffffffffff1916817bffffffffffffffffffffffffffffffffffffffffffffffffffffffff191614611d90576040517f08c379a0000000000000000000000000000000000000000000000000000000008152600401611d87906132d2565b60405180910390fd5b505b505050505050565b611db98473ffffffffffffffffffffffffffffffffffffffff16611f71565b15611f69578373ffffffffffffffffffffffffffffffffffffffff1663bc197c8187878686866040518663ffffffff1660e01b8152600401611dff9594939291906132f2565b6020604051808303816000875af1925050508015611e3b57506040513d601f19601f82011682018060405250810190611e3891906130e2565b60015b611ee057611e4761311c565b806308c379a003611ea35750611e5b61313e565b80611e665750611ea5565b806040517f08c379a0000000000000000000000000000000000000000000000000000000008152600401611e9a919061221e565b60405180910390fd5b505b6040517f08c379a0000000000000000000000000000000000000000000000000000000008152600401611ed790613240565b60405180910390fd5b63bc197c8160e01b7bffffffffffffffffffffffffffffffffffffffffffffffffffffffff1916817bffffffffffffffffffffffffffffffffffffffffffffffffffffffff191614611f67576040517f08c379a0000000000000000000000000000000000000000000000000000000008152600401611f5e906132d2565b60405180910390fd5b505b505050505050565b6000808273ffffffffffffffffffffffffffffffffffffffff163b119050919050565b6000604051905090565b600080fd5b600080fd5b600073ffffffffffffffffffffffffffffffffffffffff82169050919050565b6000611fd382611fa8565b9050919050565b611fe381611fc8565b8114611fee57600080fd5b50565b60008135905061200081611fda565b92915050565b6000819050919050565b61201981612006565b811461202457600080fd5b50565b60008135905061203681612010565b92915050565b6000806040838503121561205357612052611f9e565b5b600061206185828601611ff1565b925050602061207285828601612027565b9150509250929050565b61208581612006565b82525050565b60006020820190506120a0600083018461207c565b92915050565b60007fffffffff0000000000000000000000000000000000000000000000000000000082169050919050565b6120db816120a6565b81146120e657600080fd5b50565b6000813590506120f8816120d2565b92915050565b60006020828403121561211457612113611f9e565b5b6000612122848285016120e9565b91505092915050565b60008115159050919050565b6121408161212b565b82525050565b600060208201905061215b6000830184612137565b92915050565b60006020828403121561217757612176611f9e565b5b600061218584828501612027565b91505092915050565b600081519050919050565b600082825260208201905092915050565b60005b838110156121c85780820151818401526020810190506121ad565b60008484015250505050565b6000601f19601f8301169050919050565b60006121f08261218e565b6121fa8185612199565b935061220a8185602086016121aa565b612213816121d4565b840191505092915050565b6000602082019050818103600083015261223881846121e5565b905092915050565b600080fd5b7f4e487b7100000000000000000000000000000000000000000000000000000000600052604160045260246000fd5b61227d826121d4565b810181811067ffffffffffffffff8211171561229c5761229b612245565b5b80604052505050565b60006122af611f94565b90506122bb8282612274565b919050565b600067ffffffffffffffff8211156122db576122da612245565b5b602082029050602081019050919050565b600080fd5b60006123046122ff846122c0565b6122a5565b90508083825260208201905060208402830185811115612327576123266122ec565b5b835b81811015612350578061233c8882612027565b845260208401935050602081019050612329565b5050509392505050565b600082601f83011261236f5761236e612240565b5b813561237f8482602086016122f1565b91505092915050565b600080fd5b600067ffffffffffffffff8211156123a8576123a7612245565b5b6123b1826121d4565b9050602081019050919050565b82818337600083830152505050565b60006123e06123db8461238d565b6122a5565b9050828152602081018484840111156123fc576123fb612388565b5b6124078482856123be565b509392505050565b600082601f83011261242457612423612240565b5b81356124348482602086016123cd565b91505092915050565b600080600080600060a0868803121561245957612458611f9e565b5b600061246788828901611ff1565b955050602061247888828901611ff1565b945050604086013567ffffffffffffffff81111561249957612498611fa3565b5b6124a58882890161235a565b935050606086013567ffffffffffffffff8111156124c6576124c5611fa3565b5b6124d28882890161235a565b925050608086013567ffffffffffffffff8111156124f3576124f2611fa3565b5b6124ff8882890161240f565b9150509295509295909350565b600067ffffffffffffffff82111561252757612526612245565b5b602082029050602081019050919050565b600061254b6125468461250c565b6122a5565b9050808382526020820190506020840283018581111561256e5761256d6122ec565b5b835b8181101561259757806125838882611ff1565b845260208401935050602081019050612570565b5050509392505050565b600082601f8301126125b6576125b5612240565b5b81356125c6848260208601612538565b91505092915050565b600080604083850312156125e6576125e5611f9e565b5b600083013567ffffffffffffffff81111561260457612603611fa3565b5b612610858286016125a1565b925050602083013567ffffffffffffffff81111561263157612630611fa3565b5b61263d8582860161235a565b9150509250929050565b600081519050919050565b600082825260208201905092915050565b6000819050602082019050919050565b61267c81612006565b82525050565b600061268e8383612673565b60208301905092915050565b6000602082019050919050565b60006126b282612647565b6126bc8185612652565b93506126c783612663565b8060005b838110156126f85781516126df8882612682565b97506126ea8361269a565b9250506001810190506126cb565b5085935050505092915050565b6000602082019050818103600083015261271f81846126a7565b905092915050565b61273081611fc8565b82525050565b600060208201905061274b6000830184612727565b92915050565b61275a8161212b565b811461276557600080fd5b50565b60008135905061277781612751565b92915050565b6000806040838503121561279457612793611f9e565b5b60006127a285828601611ff1565b92505060206127b385828601612768565b9150509250929050565b600080604083850312156127d4576127d3611f9e565b5b60006127e285828601611ff1565b92505060206127f385828601611ff1565b9150509250929050565b600080600080600060a0868803121561281957612818611f9e565b5b600061282788828901611ff1565b955050602061283888828901611ff1565b945050604061284988828901612027565b935050606061285a88828901612027565b925050608086013567ffffffffffffffff81111561287b5761287a611fa3565b5b6128878882890161240f565b9150509295509295909350565b7f455243313135353a2061646472657373207a65726f206973206e6f742061207660008201527f616c6964206f776e657200000000000000000000000000000000000000000000602082015250565b60006128f0602a83612199565b91506128fb82612894565b604082019050919050565b6000602082019050818103600083015261291f816128e3565b9050919050565b7f4e487b7100000000000000000000000000000000000000000000000000000000600052601160045260246000fd5b600061296082612006565b915061296b83612006565b925082820190508082111561298357612982612926565b5b92915050565b7f4c696d69746520646520746f6b656e73206d696e7461646f7321000000000000600082015250565b60006129bf601a83612199565b91506129ca82612989565b602082019050919050565b600060208201905081810360008301526129ee816129b2565b9050919050565b6000612a0082612006565b9150612a0b83612006565b9250828202612a1981612006565b91508282048414831517612a3057612a2f612926565b5b5092915050565b7f5061677565206f2076616c6f72206e65636573736172696f2100000000000000600082015250565b6000612a6d601983612199565b9150612a7882612a37565b602082019050919050565b60006020820190508181036000830152612a9c81612a60565b9050919050565b7f4e487b7100000000000000000000000000000000000000000000000000000000600052602260045260246000fd5b60006002820490506001821680612aea57607f821691505b602082108103612afd57612afc612aa3565b5b50919050565b7f455243313135353a2063616c6c6572206973206e6f7420746f6b656e206f776e60008201527f6572206f7220617070726f766564000000000000000000000000000000000000602082015250565b6000612b5f602e83612199565b9150612b6a82612b03565b604082019050919050565b60006020820190508181036000830152612b8e81612b52565b9050919050565b600081905092915050565b50565b6000612bb0600083612b95565b9150612bbb82612ba0565b600082019050919050565b6000612bd182612ba3565b9150819050919050565b7f455243313135353a206163636f756e747320616e6420696473206c656e67746860008201527f206d69736d617463680000000000000000000000000000000000000000000000602082015250565b6000612c37602983612199565b9150612c4282612bdb565b604082019050919050565b60006020820190508181036000830152612c6681612c2a565b9050919050565b7f4e487b7100000000000000000000000000000000000000000000000000000000600052603260045260246000fd5b6000612ca782612006565b91507fffffffffffffffffffffffffffffffffffffffffffffffffffffffffffffffff8203612cd957612cd8612926565b5b600182019050919050565b7f455243313135353a206d696e7420746f20746865207a65726f2061646472657360008201527f7300000000000000000000000000000000000000000000000000000000000000602082015250565b6000612d40602183612199565b9150612d4b82612ce4565b604082019050919050565b60006020820190508181036000830152612d6f81612d33565b9050919050565b6000604082019050612d8b600083018561207c565b612d98602083018461207c565b9392505050565b7f455243313135353a2069647320616e6420616d6f756e7473206c656e6774682060008201527f6d69736d61746368000000000000000000000000000000000000000000000000602082015250565b6000612dfb602883612199565b9150612e0682612d9f565b604082019050919050565b60006020820190508181036000830152612e2a81612dee565b9050919050565b7f455243313135353a207472616e7366657220746f20746865207a65726f20616460008201527f6472657373000000000000000000000000000000000000000000000000000000602082015250565b6000612e8d602583612199565b9150612e9882612e31565b604082019050919050565b60006020820190508181036000830152612ebc81612e80565b9050919050565b7f455243313135353a20696e73756666696369656e742062616c616e636520666f60008201527f72207472616e7366657200000000000000000000000000000000000000000000602082015250565b6000612f1f602a83612199565b9150612f2a82612ec3565b604082019050919050565b60006020820190508181036000830152612f4e81612f12565b9050919050565b60006040820190508181036000830152612f6f81856126a7565b90508181036020830152612f8381846126a7565b90509392505050565b7f455243313135353a2073657474696e6720617070726f76616c2073746174757360008201527f20666f722073656c660000000000000000000000000000000000000000000000602082015250565b6000612fe8602983612199565b9150612ff382612f8c565b604082019050919050565b6000602082019050818103600083015261301781612fdb565b9050919050565b600081519050919050565b600082825260208201905092915050565b60006130458261301e565b61304f8185613029565b935061305f8185602086016121aa565b613068816121d4565b840191505092915050565b600060a0820190506130886000830188612727565b6130956020830187612727565b6130a2604083018661207c565b6130af606083018561207c565b81810360808301526130c1818461303a565b90509695505050505050565b6000815190506130dc816120d2565b92915050565b6000602082840312156130f8576130f7611f9e565b5b6000613106848285016130cd565b91505092915050565b60008160e01c9050919050565b600060033d111561313b5760046000803e61313860005161310f565b90505b90565b600060443d106131cb57613150611f94565b60043d036004823e80513d602482011167ffffffffffffffff821117156131785750506131cb565b808201805167ffffffffffffffff81111561319657505050506131cb565b80602083010160043d0385018111156131b35750505050506131cb565b6131c282602001850186612274565b82955050505050505b90565b7f455243313135353a207472616e7366657220746f206e6f6e2d4552433131353560008201527f526563656976657220696d706c656d656e746572000000000000000000000000602082015250565b600061322a603483612199565b9150613235826131ce565b604082019050919050565b600060208201905081810360008301526132598161321d565b9050919050565b7f455243313135353a204552433131353552656365697665722072656a6563746560008201527f6420746f6b656e73000000000000000000000000000000000000000000000000602082015250565b60006132bc602883612199565b91506132c782613260565b604082019050919050565b600060208201905081810360008301526132eb816132af565b9050919050565b600060a0820190506133076000830188612727565b6133146020830187612727565b818103604083015261332681866126a7565b9050818103606083015261333a81856126a7565b9050818103608083015261334e818461303a565b9050969550505050505056fea2646970667358221220ea085a994b024a2a50992a78b55f66b1a820cd68bb1673b5d19d17b93e39b0d264736f6c63430008110033697066733a2f2f516d6242695032756a7662597452537453754b536a517a32684173467a58326d5663327a686d77475a4c57507a472f7b69647d2e6a736f6e",
  "immutableReferences": {},
  "source": "// SPDX-License-Identifier: MIT\npragma solidity ^0.8.2;\nimport \"@openzeppelin/contracts/token/ERC1155/ERC1155.sol\";\ncontract MinecraftSwords is ERC1155 {\n    uint256 public constant WOOD = 0;\n    uint256 public constant STONE = 1;\n    uint256 public constant IRON = 2;\n    uint256 public constant GOLD = 3;\n    uint256 public constant DIAMOND = 4;\n\n    uint256 public woodTotalSupply = 0;\n    uint256 public stoneTotalSupply = 0;\n    uint256 public ironTotalSupply = 0;\n    uint256 public goldTotalSupply = 0;\n    uint256 public diamondTotalSupply = 0;\n\n    uint256 public woodTotalLimit = 2 * 10 ** 5;\n    uint256 public stoneTotalLimit = 2 * 10 ** 4;\n    uint256 public ironTotalLimit = 2 * 10 ** 3;\n    uint256 public goldTotalLimit = 2 * 10 ** 2;\n    uint256 public diamondTotalLimit = 2 * 10;\n\n    address public owner;\n\n    constructor() ERC1155(\"ipfs://QmbBiP2ujvbYtRStSuKSjQz2hAsFzX2mVc2zhmwGZLWPzG/{id}.json\") {\n        \n        owner = msg.sender;\n    \n    }\n\n    modifier onlyOwner() {\n    require(msg.sender == owner);\n     _;\n    }\n\n    \n\n    function buyWood (uint256 _quantidade) public payable {\n        uint256 preco = 1 * 10 ** 14;\n        require (woodTotalSupply + _quantidade <= woodTotalLimit, \"Limite de tokens mintados!\");\n        require (msg.value >= preco * _quantidade, \"Pague o valor necessario!\");\n        _mint(msg.sender, WOOD, _quantidade, \"\");\n        woodTotalSupply += _quantidade;\n\n    }\n\n    function buyStone (uint256 _quantidade) public payable {\n        uint256 preco = 1 * 10 ** 15;\n        require (stoneTotalSupply + _quantidade <= stoneTotalLimit, \"Limite de tokens mintados!\");\n        require (msg.value >= preco * _quantidade, \"Pague o valor necessario!\");\n        _mint(msg.sender, STONE, _quantidade, \"\");\n        stoneTotalSupply += _quantidade;\n\n    }\n\n    function buyIron (uint256 _quantidade) public payable {\n        uint256 preco = 5 * 10 ** 15;\n        require (ironTotalSupply + _quantidade <= ironTotalLimit, \"Limite de tokens mintados!\");\n        require (msg.value >= preco * _quantidade, \"Pague o valor necessario!\");\n        _mint(msg.sender, IRON, _quantidade, \"\");\n        ironTotalSupply += _quantidade;\n\n    }\n\n    function buyGold (uint256 _quantidade) public payable {\n        uint256 preco = 1 * 10 ** 16;\n        require (goldTotalSupply + _quantidade <= goldTotalLimit, \"Limite de tokens mintados!\");\n        require (msg.value >= preco * _quantidade, \"Pague o valor necessario!\");\n        _mint(msg.sender, GOLD, _quantidade, \"\");\n        goldTotalSupply += _quantidade;\n\n    }\n\n    function buyDiamond (uint256 _quantidade) public payable {\n        uint256 preco = 5 * 10 ** 17;\n        require (diamondTotalSupply + _quantidade <= diamondTotalLimit, \"Limite de tokens mintados!\");\n        require (msg.value >= preco * _quantidade, \"Pague o valor necessario!\");\n        _mint(msg.sender, DIAMOND, _quantidade, \"\");\n        diamondTotalSupply += _quantidade;\n\n    }\n\n    function withdraw() public payable onlyOwner {\n    (bool os, ) = payable(owner).call{value: address(this).balance}(\"\");\n    require(os);\n  }\n\n\n}",
  "sourcePath": "/home/lucas-ibrahim/rea de Trabalho/2ndMarket/GameItens/contracts/MinecraftSwords.sol",
  "compiler": {
    "name": "solc",
    "version": "0.8.17+commit.8df45f5f.Emscripten.clang"
  },
  "schemaVersion": "3.4.9",
  "updatedAt": "2022-11-29T19:34:38.442Z",
  "networkType": "ethereum",
  "devdoc": {
    "kind": "dev",
    "methods": {
      "balanceOf(address,uint256)": {
        "details": "See {IERC1155-balanceOf}. Requirements: - `account` cannot be the zero address."
      },
      "balanceOfBatch(address[],uint256[])": {
        "details": "See {IERC1155-balanceOfBatch}. Requirements: - `accounts` and `ids` must have the same length."
      },
      "isApprovedForAll(address,address)": {
        "details": "See {IERC1155-isApprovedForAll}."
      },
      "safeBatchTransferFrom(address,address,uint256[],uint256[],bytes)": {
        "details": "See {IERC1155-safeBatchTransferFrom}."
      },
      "safeTransferFrom(address,address,uint256,uint256,bytes)": {
        "details": "See {IERC1155-safeTransferFrom}."
      },
      "setApprovalForAll(address,bool)": {
        "details": "See {IERC1155-setApprovalForAll}."
      },
      "supportsInterface(bytes4)": {
        "details": "See {IERC165-supportsInterface}."
      },
      "uri(uint256)": {
        "details": "See {IERC1155MetadataURI-uri}. This implementation returns the same URI for *all* token types. It relies on the token type ID substitution mechanism https://eips.ethereum.org/EIPS/eip-1155#metadata[defined in the EIP]. Clients calling this function must replace the `\\{id\\}` substring with the actual token type ID."
      }
    },
    "version": 1
  },
  "userdoc": {
    "kind": "user",
    "methods": {},
    "version": 1
  }
}